:100000000C9462000C948A000C948A000C948A0070
:100010000C948A000C948A000C948A000C948A0038
:100020000C948A000C948A000C948A000C948A0028
:100030000C948A000C948A000C948A000C948A0018
:100040000C9453030C948A000C9421030C94FB022F
:100050000C948A000C948A000C948A000C948A00F8
:100060000C948A000C948A000000000023002600F3
:10007000290000000008000201000003040700003E
:1000800000000000000000000000250028002B00F8
:1000900000000000240027002A00040404040404D3
:1000A0000404020202020202030303030303010227
:1000B00004081020408001020408102001020408F6
:1000C00010209D0311241FBECFEFD8E0DEBFCDBFAF
:1000D00011E0A0E0B1E0E6EFFFE002C005900D9274
:1000E000A631B107D9F721E0A6E1B1E001C01D9228
:1000F000A23EB207E1F710E0C2E6D0E004C02197CB
:10010000FE010E94F307C136D107C9F70E94E00340
:100110000C94F9070C94000090E0FC01E255FF4FAD
:10012000249186569F4FFC018491882399F090E09A
:10013000880F991FFC01E057FF4FA591B491FC0176
:10014000EA57FF4F859194918FB7F894EC91E22B89
:10015000EC938FBF0895AF92BF92CF92DF92EF9250
:10016000FF920F931F93CF93DF936C017B018B0161
:10017000040F151FEB015E01AE18BF08C017D107B1
:1001800059F06991D601ED91FC910190F081E02D3B
:10019000C6010995892B79F7C501DF91CF911F9190
:1001A0000F91FF90EF90DF90CF90BF90AF900895A8
:1001B000FC01538D448D252F30E0842F90E0821B6D
:1001C000930B541710F0CF96089501970895FC01F2
:1001D000918D828D981761F0A28DAE0FBF2FB11D4A
:1001E0005D968C91928D9F5F9F73928F90E00895A2
:1001F0008FEF9FEF0895FC01918D828D981731F05C
:10020000828DE80FF11D858D90E008958FEF9FEFAF
:100210000895FC01918D228D892F90E0805C9F4F85
:10022000821B91098F73992708958BE291E00E94B8
:10023000090121E0892B09F420E0822F089580E054
:1002400090E0892B29F00E94150181110C94000087
:100250000895FC01A48DA80FB92FB11DA35ABF4F5B
:100260002C91848D90E001968F739927848FA689B5
:10027000B7892C93A089B1898C91837080648C9309
:10028000938D848D981306C00288F389E02D8081B8
:100290008F7D80830895EF92FF920F931F93CF93EA
:1002A000DF93EC0181E0888F9B8D8C8D98131AC0B1
:1002B000E889F989808185FF15C09FB7F894EE8998
:1002C000FF896083E889F9898081837080648083F5
:1002D0009FBF81E090E0DF91CF911F910F91FF9040
:1002E000EF900895F62E0B8D10E00F5F1F4F0F73E8
:1002F0001127E02E8C8D8E110CC00FB607FCFACFA3
:10030000E889F989808185FFF5CFCE010E94290116
:10031000F1CFEB8DEC0FFD2FF11DE35AFF4FF08273
:100320009FB7F8940B8FEA89FB8980818062CFCFD9
:10033000CF93DF93EC01888D8823B9F0AA89BB891C
:10034000E889F9898C9185FD03C0808186FD0DC007
:100350000FB607FCF7CF8C9185FFF2CF808185FF28
:10036000EDCFCE010E942901E9CFDF91CF91089511
:10037000833081F028F4813099F08230A9F008951B
:100380008730A9F08830C9F08430B1F480918000C2
:100390008F7D03C0809180008F77809380000895C7
:1003A00084B58F7784BD089584B58F7DFBCF809110
:1003B000B0008F778093B00008958091B0008F7D5A
:1003C000F9CFCF93DF93282F30E0F901EE58FF4F9C
:1003D0008491F901E255FF4FD491F901E656FF4FA0
:1003E000C491CC23A1F081110E94B801EC2FF0E060
:1003F000EE0FFF1FE859FF4FA591B491EC91ED234B
:1004000081E090E009F480E0DF91CF91089580E0F1
:1004100090E0FACF1F93CF93DF93282F30E0F901BC
:10042000EE58FF4F8491F901E255FF4FD491F90145
:10043000E656FF4FC491CC23A9F0162F81110E94DC
:10044000B801EC2FF0E0EE0FFF1FEA57FF4FA59128
:10045000B4918FB7F894EC91111108C0D095DE23B8
:10046000DC938FBFDF91CF911F910895DE2BF8CFE2
:100470001F93CF93DF93182FEB010E948C002097DE
:1004800039F460E0812FDF91CF911F910C940A0223
:10049000CF3FD10511F461E0F5CFE12FF0E0EE5848
:1004A000FF4FE491E33031F140F4E130B1F0E2305C
:1004B000E1F0C038D1057CF7E4CFE73029F1E8302E
:1004C00059F1E430B1F78091800080628093800020
:1004D000D0938B00C0938A0004C084B5806884BD2B
:1004E000C7BDDF91CF911F91089584B5806284BD0F
:1004F000C8BDF7CF80918000806880938000D09342
:100500008900C0938800EDCF8091B000806880930F
:10051000B000C093B300E5CF8091B00080628093BB
:10052000B000C093B400DDCF3FB7F89480911701BD
:1005300090911801A0911901B0911A0126B5A89BBC
:1005400005C02F3F19F00196A11DB11D3FBFBA2F65
:10055000A92F982F8827BC01CD01620F711D811D25
:10056000911D42E0660F771F881F991F4A95D1F7AA
:100570000895FC012FB7F89480911B0190911C0104
:10058000A0911D01B0911E012FBF4681578160854A
:100590007185841B950BA60BB70B42815381648137
:1005A000758184179507A607B70720F081E0828739
:1005B0001486089580E00895FC01138614868FB791
:1005C000F89440911B0150911C0160911D017091A4
:1005D0001E018FBF2FB7F89480911B0190911C01D1
:1005E000A0911D01B0911E012FBF86839783A08724
:1005F000B187128608951F920F920FB60F921124A1
:100600002F933F934F935F936F937F938F939F931A
:10061000AF93BF93EF93FF938BE291E00E94290188
:10062000FF91EF91BF91AF919F918F917F916F91CA
:100630005F914F913F912F910F900FBE0F901F90A0
:1006400018951F920F920FB60F9211242F938F932C
:100650009F93EF93FF93E0913B01F0913C018081E8
:10066000E0914101F091420182FD1BC09081809197
:1006700044018F5F8F7320914501821741F0E09113
:100680004401F0E0E55DFE4F958F80934401FF91BA
:10069000EF919F918F912F910F900FBE0F901F9010
:1006A00018958081F4CF1F920F920FB60F921124EC
:1006B0002F933F938F939F93AF93BF9380911B0191
:1006C00090911C01A0911D01B0911E013091160165
:1006D00023E0230F2D3758F50196A11DB11D20935E
:1006E000160180931B0190931C01A0931D01B093F0
:1006F0001E018091170190911801A0911901B091EC
:100700001A010196A11DB11D809317019093180144
:10071000A0931901B0931A01BF91AF919F918F914E
:100720003F912F910F900FBE0F901F90189526E8C4
:10073000230F0296A11DB11DD2CFEBE2F1E013828F
:10074000128288EE93E0A0E0B0E084839583A683D4
:10075000B78388E091E09183808385EC90E0958772
:10076000848784EC90E09787868780EC90E0918B7B
:10077000808B81EC90E0938B828B82EC90E0958B68
:10078000848B86EC90E0978B868B118E128E138E65
:10079000148EE5EDF1E02FEF3FEF3183208380E110
:1007A00097E2A0E0B0E082839383A483B583E8EC72
:1007B000F1E03183208382839383A483B5830895FA
:1007C000789484B5826084BD84B5816084BD85B52C
:1007D000826085BD85B5816085BD80916E00816038
:1007E00080936E00109281008091810082608093DE
:1007F00081008091810081608093810080918000E0
:100800008160809380008091B10084608093B1000A
:100810008091B00081608093B00080917A00846004
:1008200080937A0080917A00826080937A00809130
:100830007A00816080937A0080917A00806880934A
:100840007A001092C100E0913B01F0913C0182E0FE
:100850008083E0913701F09138011082E0913901F5
:10086000F0913A018FEC808310924301E0913F01B7
:10087000F091400186E08083E0913D01F0913E01DE
:10088000808180618083E0913D01F0913E01808113
:1008900088608083E0913D01F0913E018081806815
:1008A0008083E0913D01F0913E0180818F7D8083C6
:1008B00084E00E948C0087E00E948C0085E00E940A
:1008C0008C0086E00E948C0089E00E948C0061E030
:1008D00084E00E940A0261E087E00E940A0270E060
:1008E00060E085E00E94380270E060E086E00E94EF
:1008F000380264E170E089E00E94380281E0809370
:10090000000190E4B92E00E010E0C1E0B0927C005C
:1009100080917A00806480937A0080917A0086FDCD
:10092000FCCF809178006091790090910001911145
:100930002BC090912001911127C0762F682F072E90
:10094000000C880B990B0E94D10620E030E04AEBA6
:1009500052E40E945D0620E030E040EA50E40E944C
:10096000620720E030E040E251E40E945D0620E0B2
:1009700030E040E85FE30E945D0718160CF04FC1BD
:10098000109203011092020180910301882391F0DB
:100990008091020181110EC01092010110922A0172
:1009A000C093290185ED91E00E94DC02C093E00133
:1009B000C093E101A090280182E00E94E101D1E012
:1009C000892B09F4D0E0AD1659F10E9494022B0155
:1009D0003C0185E0C82ED12CE12CF12C0E94940220
:1009E0006419750986099709683E73408105910568
:1009F000A8F321E0C21AD108E108F10888EE480EF8
:100A000083E0581E611C711CC114D104E104F1047F
:100A100029F782E00E94E101D1E0892B09F4D0E0BE
:100A2000D0932701A1102DC0DD2359F19091010130
:100A3000809129018111F6C0992319F180912A0131
:100A4000811123C180911F0181111BC0C0932A0114
:100A5000C0932901C09302011092000160E084E07C
:100A60000E940A026AE070E086E00E94380270E0AC
:100A700060E085E00E94380270E060E089E00E945A
:100A80003802D09328018091E001882309F482C0C4
:100A900085ED91E00E94B902882349F1C0932001BD
:100AA00070E060E086E00E9438026AE070E085E075
:100AB0000E94380270E060E089E00E94380260E045
:100AC00087E00E940A0285ED91E00E94DC02C0935B
:100AD00029011092010110920001C0931F0188ECBE
:100AE00091E00E94DC02C093D301C093D4018091B5
:100AF000E001882309F44EC085ED91E00E94B9021F
:100B0000811148C0C09302012FB7F89480911B0156
:100B100090911C01A0911D01B0911E012FBF409129
:100B200023015091240160912501709126016C01EF
:100B30007D01C41AD50AE60AF70AB701A601443FA7
:100B400051406105710530F1809323019093240198
:100B5000A0932501B093260180912101909122015B
:100B6000892B09F0A5C08AE090E090932201809340
:100B7000210170E060E086E00E94380270E060E0F1
:100B800089E00E943802609121017091220185E084
:100B90000E9438028091D3018823A9F188EC91E06A
:100BA0000E94B902882339F188EC91E00E94DC02AE
:100BB00061E084E00E940A0261E087E00E940A028C
:100BC00070E060E086E00E94380270E060E085E05E
:100BD0000E94380264E170E089E00E9438021092BD
:100BE0002001C093010110922A0110922901C093A3
:100BF000000110921F018091D301882321F088EC1D
:100C000091E00E94B9020115110509F47FCE0E94FE
:100C10001501882309F47ACE0E94000077CEC09394
:100C20000301B2CE80912A0191112CC0811129CFEC
:100C300080911F01811125CFC0932A0110922901B3
:100C4000C093010110920001C093020160E084E0B2
:100C50000E940A026AE070E086E00E94380270E0BA
:100C600060E085E00E94380270E060E089E00E9468
:100C7000380285ED91E00E94DC0288EC91E00E9450
:100C8000DC02FFCE882309F4FCCE80911F01811184
:100C9000F8CE1092010110922A01C093290185ED2E
:100CA00091E00E94DC02C093E001C093E101E9CE33
:100CB00010922201109221015CCF0E9471060C94C7
:100CC00023070E941C0758F00E94150740F029F4E2
:100CD0005F3F29F00C940C0751110C9457070C94AA
:100CE00012070E94340768F39923B1F3552391F357
:100CF000951B550BBB27AA2762177307840738F08B
:100D00009F5F5F4F220F331F441FAA1FA9F335D0E7
:100D10000E2E3AF0E0E832D091505040E695001C9B
:100D2000CAF72BD0FE2F29D0660F771F881FBB1F55
:100D3000261737074807AB07B0E809F0BB0B802D33
:100D4000BF01FF2793585F4F3AF09E3F510578F05F
:100D50000C940C070C9457075F3FE4F3983ED4F3D0
:100D6000869577956795B795F7959F5FC9F7880F33
:100D7000911D9695879597F90895E1E0660F771F85
:100D8000881FBB1F621773078407BA0720F0621B16
:100D9000730B840BBA0BEE1F88F7E0950895E89467
:100DA00009C097FB3EF490958095709561957F4FB3
:100DB0008F4F9F4F9923A9F0F92F96E9BB27939561
:100DC000F695879577956795B795F111F8CFFAF471
:100DD000BB0F11F460FF1BC06F5F7F4F8F4F9F4FA2
:100DE00016C0882311F096E911C0772321F09EE800
:100DF000872F762F05C0662371F096E8862F70E066
:100E000060E02AF09A95660F771F881FDAF7880F3F
:100E10009695879597F9089597F99F6780E870E010
:100E200060E008959FEF80EC089500240A94161660
:100E3000170618060906089500240A9412161306C8
:100E4000140605060895092E0394000C11F4882356
:100E500052F0BB0F40F4BF2B11F460FF04C06F5F72
:100E60007F4F8F4F9F4F089557FD9058440F551F48
:100E700059F05F3F71F04795880F97FB991F61F01C
:100E80009F3F79F087950895121613061406551F93
:100E9000F2CF4695F1DF08C0161617061806991FFF
:100EA000F1CF86957105610508940895E894BB27F4
:100EB00066277727CB0197F908950E94CF0708F49A
:100EC0008FEF08950E9475070C9423070E94150761
:100ED00038F00E941C0720F0952311F00C940C07A9
:100EE0000C94120711240C9457070E94340770F3D6
:100EF000959FC1F3950F50E0551F629FF001729FBF
:100F0000BB27F00DB11D639FAA27F00DB11DAA1FCD
:100F1000649F6627B00DA11D661F829F2227B00D1A
:100F2000A11D621F739FB00DA11D621F839FA00DA5
:100F3000611D221F749F3327A00D611D231F849FF5
:100F4000600D211D822F762F6A2F11249F5750404C
:100F50009AF0F1F088234AF0EE0FFF1FBB1F661FC7
:100F6000771F881F91505040A9F79E3F510580F090
:100F70000C940C070C9457075F3FE4F3983ED4F3AE
:100F8000869577956795B795F795E7959F5FC1F734
:100F9000FE2B880F911D9695879597F90895990FC7
:100FA0000008550FAA0BE0E8FEEF16161706E80733
:100FB000F907C0F012161306E407F50798F0621B54
:100FC000730B840B950B39F40A2661F0232B242B29
:100FD000252B21F408950A2609F4A140A6958FEF48
:100FE000811D811D0895EE0FFF1F0590F491E02DE6
:060FF0000994F894FFCF04
:100FF60001010101000000004B01AB00D80098017F
:061006000901E700FB00F8
:00000001FF
